:100000000C947C000C9486000C9486000C94860062
:100010000C9486000C9486000C9486000C94860048
:100020000C9486000C9486000C9486000C94860038
:100030000C9486000C9486000C9486000C94860028
:100040000C9486000C9486000C9486000C94860018
:100050000C9486000C9486000C9486000C94860008
:100060000C9486000C9486000C9486000C948600F8
:100070000C9486000C9486000C9486000C948600E8
:100080000C9486000C9486000C9486000C948600D8
:100090000C9486000C9486000C9486000C948600C8
:1000A0000C9486000C9486000C9486000C948600B8
:1000B0000C948600DC013A013A013A013A013A0116
:1000C0003A01C6013A013A013A013A013A01D10135
:1000D00046014B0158016E01790184019A01A50185
:1000E000B0013A013A013A013A013A013A013A01C2
:1000F00063018F01BB01E70111241FBECFEFD8E0E0
:10010000DEBFCDBF0E942E010C94F8010C940000BC
:1001100087B18F6087B985B18F6085B9E1E0F0E084
:1001200086E4A1E0B0E001C031969F012150310981
:1001300098B19F6098B948B1BD01022E02C0660F08
:10014000771F0A94E2F7962F9095942398B921305F
:10015000310511F140F022303105B9F1233031057C
:1001600009F449C05EC093B1917093B9992309F421
:100170005DC093B1927093B9992309F459C093B1BA
:10018000947093B9992309F455C093B1987093B9B9
:100190009111CACF81E4C8CF93B1917093B99923DB
:1001A00009F44AC093B1927093B9992309F446C0F7
:1001B00093B1947093B9992309F442C093B19870A4
:1001C00093B99111B1CF82E4AFCF93B1917093B94C
:1001D0009923C1F193B1927093B99923A9F193B185
:1001E000947093B9992391F193B1987093B9911147
:1001F0009BCF83E499CF93B1917093B9992341F147
:1002000093B1927093B9992329F193B1947093B9F2
:10021000992311F193B1987093B991111EC084E4A0
:100220000895E430F1050CF47FCF089581E37CCF8D
:1002300082E37ACF83E378CF84E376CF85E374CF0C
:1002400086E372CF87E370CF88E36ECF89E36CCF0C
:100250008AE2089580E3089583E2089584B5836077
:1002600084BD85B5886085BD84B5806884BD3D9AB0
:10027000569AC3E20E94880090E0FC01B397E232F4
:10028000F105C0F7E65AFF4F0C94F201C7BD87B5E0
:10029000869588BDEFCFC7BD87B5869588BD459A41
:1002A000AA9BFECFAA9A4598A99BFECFA99AE2CF16
:1002B000459A8CE08A95F1F7000045988CE08A9584
:1002C000F1F70000D7CF459A8CE08A95F1F700004E
:1002D00045988CE08A95F1F70000CCCF459A8CE0E8
:1002E0008A95F1F7000045988CE08A95F1F70000B7
:1002F000C1CF459A8CE08A95F1F7000045988CE0D3
:100300008A95F1F70000B6CF459A8CE08A95F1F70F
:10031000000045988CE08A95F1F70000ABCF459A34
:100320008CE08A95F1F7000045988CE08A95F1F70A
:100330000000A0CF459A8CE08A95F1F7000045981F
:100340008CE08A95F1F7000095CF459A8CE08A956C
:10035000F1F7000045988CE08A95F1F700008ACF0C
:10036000459A8CE08A95F1F7000045988CE08A95D3
:10037000F1F700007FCF459A8CE08A95F1F70000F5
:1003800045988CE08A95F1F7000074CF459A86E095
:100390008A95F1F70000459886E08A95F1F700000C
:1003A00069CF459A86E08A95F1F70000459886E086
:1003B0008A95F1F700005ECF459A86E08A95F1F7BD
:1003C0000000459886E08A95F1F7000053CF459AE2
:1003D00086E08A95F1F70000459886E08A95F1F766
:1003E000000048CFEE0FFF1F0590F491E02D099417
:0403F000F894FFCFAF
:00000001FF
