S00D00004C616220392E73726563AF
S11300000C945A000C946C000C946C000C946C00CE
S11300100C946C000C946C000C946C000C94AC006C
S11300200C94B7000C946C000C946C000C946C0051
S11300300C946C000C946C000C946E000C946C008A
S11300400C946C000C946C000C946C000C946C007C
S11300500C946C000C9478000C946C000C946C0060
S11300600C946C000C946C000C946C000C946C005C
S11300700C946C000C946C000C946C000C946C004C
S11300800C946C000C946C000C946C000C946C003C
S11300900C946C000C946C000C946C000C946C002C
S11300A00C946C000C946C000C946C000C946C001C
S11300B00C946C0011241FBECFEFD8E0DEBFCDBF7F
S11300C021E0A0E0B1E001C01D92A130B207E1F748
S11300D00E94DE000C941B030C9400001F920F92EC
S11300E00FB60F9211240F900FBE0F901F9018950A
S11300F01F920F920FB60F9211242F933F934F9399
S11301005F936F937F938F939F93AF93BF93EF937B
S1130110FF93609178007091790080E090E00E94F4
S113012020022EED3FEF47EC5DE30E9486020E9421
S1130130F10160930001FF91EF91BF91AF919F9105
S11301408F917F916F915F914F913F912F910F907C
S11301500FBE0F901F9018951F920F920FB60F921B
S113016011242D9A0F900FBE0F901F9018951F9277
S11301700F920FB60F9211242D980F900FBE0F906F
S11301801F901895ECE7F0E0808180648083808183
S113019083608083EAE7F0E08081806880838081E7
S11301A08860808380818360808380818062808393
S11301B0EBE7F0E08081836080830895259A78944A
S11301C084B5826084BD85B5836085BD89EF87BDB4
S11301D0EEE6F0E0808182608083E0EBF0E08081F5
S11301E082608083E1EBF0E080818660808388E632
S11301F08093B300E0E7F0E08081866080830E9412
S1130200C20003EB10E0C4EBD0E0809100018B301E
S113021090F480910001F801608170E080E090E04A
S11302200E9422022DEC3CEC4CE45DE30E94860229
S11302300E94F1016883809100018531A0F48091CE
S113024000018B3080F0F801608170E080E090E084
S11302500E9422022DEC3CEC4CE45EE30E948602F8
S11302600E94F1016883809100018F31A0F4809194
S11302700001853180F0F801608170E080E090E059
S11302800E9422022AE939E949E95EE30E948602D2
S11302900E94F1016883809100018932A0F4809169
S11302A000018F3180F0F801608170E080E090E01F
S11302B00E9422022DEC3CEC4CEC5EE30E94860290
S11302C00E94F1016883809100018333A0F480913E
S11302D00001893280F0F801608170E080E090E0F4
S11302E00E94220220E030E040E05FE30E948602A8
S11302F00E94F1016883809100018D33A0F4809104
S11303000001833380F0F801608170E080E090E0C8
S11303100E9422022AE939E949E15FE30E94860248
S11303200E94F1016883809100018734A0F48091D8
S113033000018D3380F0F801608170E080E090E08E
S11303400E94220223E333E343E35FE30E94860235
S11303500E94F1016883809100018135A0F48091AD
S11303600001873480F0F801608170E080E090E063
S11303700E9422022DEC3CEC4CE45FE30E948602D6
S11303800E94F1016883809100018B35A0F4809173
S11303900001813580F0F801608170E080E090E038
S11303A00E94220226E636E646E65FE30E948602C3
S11303B00E94F1016883809100018B3508F425CFF8
S11303C0F801608170E080E090E00E94220224EA5B
S11303D030E74DE75FE30E9486020E94F1016883E3
S11303E014CF0E94650288F09F5798F0B92F99277F
S11303F0B751B0F0E1F0660F771F881F991F1AF00C
S1130400BA95C9F714C0B13091F00E947F02B1E0EF
S113041008950C947F02672F782F8827B85F39F0EE
S1130420B93FCCF3869577956795B395D9F73EF4A4
S113043090958095709561957F4F8F4F9F4F08954C
S1130440E89409C097FB3EF490958095709561956A
S11304507F4F8F4F9F4F9923A9F0F92F96E9BB2720
S11304609395F695879577956795B795F111F8CF9C
S1130470FAF4BB0F11F460FF1BC06F5F7F4F8F4F07
S11304809F4F16C0882311F096E911C0772321F0FD
S11304909EE8872F762F05C0662371F096E8862F95
S11304A070E060E02AF09A95660F771F881FDAF7EC
S11304B0880F9695879597F9089557FD9058440F9E
S11304C0551F59F05F3F71F04795880F97FB991FAF
S11304D061F09F3F79F0879508951216130614066C
S11304E0551FF2CF4695F1DF08C0161617061806F9
S11304F0991FF1CF86957105610508940895E894D4
S1130500BB2766277727CB0197F908950E949902A4
S11305100C940A030E94FC0238F00E94030320F0AA
S1130520952311F00C94F3020C94F90211240C9409
S113053080020E945D0270F3959FC1F3950F50E015
S1130540551F629FF001729FBB27F00DB11D639F81
S1130550AA27F00DB11DAA1F649F6627B00DA11D27
S1130560661F829F2227B00DA11D621F739FB00DCD
S1130570A11D621F839FA00D611D221F749F33273D
S1130580A00D611D231F849F600D211D822F762FD6
S11305906A2F11249F5750409AF0F1F088234AF0B3
S11305A0EE0FFF1FBB1F661F771F881F915050401F
S11305B0A9F79E3F510580F00C94F3020C9480023D
S11305C05F3FE4F3983ED4F3869577956795B795A6
S11305D0F795E7959F5FC1F7FE2B880F911D9695C0
S11305E0879597F9089597F99F6780E870E060E030
S11305F008959FEF80EC089500240A9416161706B8
S113060018060906089500240A94121613061406FF
S113061005060895092E0394000C11F4882352F062
S1130620BB0F40F4BF2B11F460FF04C06F5F7F4F1A
S10D06308F4F9F4F0895F894FFCFF9
S9030000FC
