:100000000C945A000C9464000C9464000C946400EA
:100010000C9464000C9464000C9464000C947801BB
:100020000C9483010C9464000C9464000C946400A0
:100030000C9464000C9464000C9464000C946400B0
:100040000C9464000C9464000C9464000C946400A0
:100050000C9464000C9464000C9464000C94640090
:100060000C9464000C9464000C9464000C94640080
:100070000C9464000C9464000C9464000C94640070
:100080000C9464000C9464000C9464000C94640060
:100090000C9464000C9464000C9464000C94640050
:1000A0000C9464000C9464000C9464000C94640040
:1000B0000C94640011241FBECFEFD8E0DEBFCDBF8B
:1000C0000E9466000C94D2020C940000259A789449
:1000D000E0EBF0E0808182608083E1EBF0E0808102
:1000E000876080838DE48093B3001092B400E0E7D2
:1000F000F0E080818660808384E190E00E94B80215
:10010000811108C01092B40061E084E190E00E9487
:10011000C002EDC08130B9F46091B30070E080E0BE
:1001200090E00E94BF012DEC3CEC4CEC5DE30E94A2
:1001300023020E948E016093B40062E084E190E0AB
:100140000E94C002D4C08230B9F46091B30070E064
:1001500080E090E00E94BF012DEC3CEC4CE45EE3BB
:100160000E9423020E948E016093B40063E084E148
:1001700090E00E94C002BBC08330B9F46091B3002C
:1001800070E080E090E00E94BF012AE939E949E986
:100190005EE30E9423020E948E016093B40064E03B
:1001A00084E190E00E94C002A2C08430B9F4609162
:1001B000B30070E080E090E00E94BF012DEC3CECC9
:1001C0004CEC5EE30E9423020E948E016093B40017
:1001D00065E084E190E00E94C00289C08530B9F4F6
:1001E0006091B30070E080E090E00E94BF0120E0E9
:1001F00030E040E05FE30E9423020E948E016093A2
:10020000B40066E084E190E00E94C00270C08630D5
:10021000B9F46091B30070E080E090E00E94BF010B
:100220002AE939E949E15FE30E9423020E948E0135
:100230006093B40067E084E190E00E94C00257C080
:100240008730B9F46091B30070E080E090E00E94E4
:10025000BF0123E333E343E35FE30E9423020E94F1
:100260008E016093B40068E084E190E00E94C002D7
:100270003EC08830B9F46091B30070E080E090E057
:100280000E94BF012DEC3CEC4CE45FE30E94230292
:100290000E948E016093B40069E084E190E00E94C6
:1002A000C00225C08930B9F46091B30070E080E0ED
:1002B00090E00E94BF0126E636E646E65FE30E9434
:1002C00023020E948E016093B4006AE084E190E012
:1002D0000E94C0020CC08A3050F08091B30081505F
:1002E0008093B40060E084E190E00E94C002FFCF00
:1002F0001F920F920FB60F9211242D9A0F900FBEDE
:100300000F901F9018951F920F920FB60F92112405
:100310002D980F900FBE0F901F9018950E9402020B
:1003200088F09F5798F0B92F9927B751B0F0E1F0B6
:10033000660F771F881F991F1AF0BA95C9F714C066
:10034000B13091F00E941C02B1E008950C941C029F
:10035000672F782F8827B85F39F0B93FCCF386959F
:1003600077956795B395D9F73EF4909580957095FC
:1003700061957F4F8F4F9F4F0895E89409C097FB79
:100380003EF490958095709561957F4F8F4F9F4F6C
:100390009923A9F0F92F96E9BB279395F6958795B0
:1003A00077956795B795F111F8CFFAF4BB0F11F473
:1003B00060FF1BC06F5F7F4F8F4F9F4F16C088231A
:1003C00011F096E911C0772321F09EE8872F762F50
:1003D00005C0662371F096E8862F70E060E02AF091
:1003E0009A95660F771F881FDAF7880F969587957D
:1003F00097F9089557FD9058440F551F59F05F3FE6
:1004000071F04795880F97FB991F61F09F3F79F036
:1004100087950895121613061406551FF2CF4695B8
:10042000F1DF08C0161617061806991FF1CF86953A
:100430007105610508940895E894BB27662777271E
:10044000CB0197F908950E9436020C94A7020E94EE
:10045000990238F00E94A00220F0952311F00C942C
:1004600090020C94960211240C941D020E94FA0131
:1004700070F3959FC1F3950F50E0551F629FF001F7
:10048000729FBB27F00DB11D639FAA27F00DB11D10
:10049000AA1F649F6627B00DA11D661F829F222799
:1004A000B00DA11D621F739FB00DA11D621F839F20
:1004B000A00D611D221F749F3327A00D611D231FF6
:1004C000849F600D211D822F762F6A2F11249F5744
:1004D00050409AF0F1F088234AF0EE0FFF1FBB1F47
:1004E000661F771F881F91505040A9F79E3F510506
:1004F00080F00C9490020C941D025F3FE4F3983E50
:10050000D4F3869577956795B795F795E7959F5FAF
:10051000C1F7FE2B880F911D9695879597F9089541
:1005200097F99F6780E870E060E008959FEF80ECA6
:10053000089500240A941616170618060906089549
:1005400000240A9412161306140605060895092EAF
:100550000394000C11F4882352F0BB0F40F4BF2B1E
:1005600011F460FF04C06F5F7F4F8F4F9F4F08955E
:10057000F999FECF92BD81BDF89A992780B508956B
:10058000262FF999FECF92BD81BDF89A019700B44C
:10059000021639F01FBA20BD0FB6F894FA9AF99AEC
:0805A0000FBE0895F894FFCF8F
:00000001FF
