S01000004C6162354C4544322E73726563C9
S11300000C945A000C9464000C9464000C946400E6
S11300100C9464000C9464000C9464000C946400CC
S11300200C9464000C9464000C9464000C946400BC
S11300300C9464000C9464000C9464000C946400AC
S11300400C9464000C9464000C9464000C9464009C
S11300500C9464000C9464000C9464000C9464008C
S11300600C9464000C9464000C9464000C9464007C
S11300700C9464000C9464000C9464000C9464006C
S11300800C9464000C9464000C9464000C9464005C
S11300900C9464000C9464000C9464000C9464004C
S11300A00C9464000C9464000C9464000C9464003C
S11300B00C94640011241FBECFEFD8E0DEBFCDBF87
S11300C00E9479000C949B000C9400002D9AAA9B2A
S11300D0FECFAA9A88B58C3911F48BE988BD88B50E
S11300E0811102C081E088BD2D98A99BFECFA99AF9
S11300F00895259A2F9A84B5836084BD85B5886058
S113010085BD85B5856085BD8CE987BD81E088BDE9
S113011083B1807883B9811107C088B50E946600D5
S113012088B58F5F88BDF4CF88B50E94660088B516
S10D0130815088BDEDCFF894FFCF95
S9030000FC
