:100000000C949B000C94A5000C94A5000C94A500E6
:100010000C94A5000C94A5000C94A5000C94A500CC
:100020000C94A5000C94A5000C94A5000C94A500BC
:100030000C94A5000C94A5000C94A5000C94A500AC
:100040000C94A5000C94A5000C94A5000C94A5009C
:100050000C94A5000C94A5000C94A5000C94A5008C
:100060000C94A5000C94A5000C94A5000C94A5007C
:100070000C94A5000C94A5000C94A5000C94A5006C
:100080000C94A5000C94A5000C94A5000C94A5005C
:100090000C94A5000C94A5000C94A5000C94A5004C
:1000A0000C94A5000C94A5000C94A5000C94A5003C
:1000B0000C94A50007634236B79BD8A71A39685637
:1000C00018AEBAAB558C1D3CB7CC5763BD6DEDFD7A
:1000D000753EF6177231BF000000803F0800000037
:1000E000BE922449123EABAAAA2ABECDCCCC4C3E2D
:1000F00000000080BEABAAAAAA3E00000000BF001C
:100100000000803F0000000000084178D3BB438717
:10011000D1133D190E3CC3BD4282AD2B3E68EC822B
:1001200076BED98FE1A93E4C80EFFFBE01C4FF7FB0
:100130003F000000000011241FBECFEFD8E0DEBF5B
:10014000CDBF0E94E5010C9483050C940000559AE4
:1001500020E030E040E451E40E9462029B01AC01E7
:1001600060E070E080E090E40E94C10320E030E0B5
:100170004CED53E40E9454039B01AC0160E070E03D
:1001800080E89FE30E9462022DEB37E346E85BE3E1
:100190000E94620220E030E040E853E40E945403F1
:1001A00020E030E040E85FE30E94F5010E94D402C5
:1001B00067BD87B5869588BD08950F931F93CF932C
:1001C000DF9387B18F6087B985B18F6085B9C1E052
:1001D000D0E086E401E010E001C021969E012150AC
:1001E000310998B19F6098B948B1B801022E02C098
:1001F000660F771F0A94E2F7962F9095942398B98B
:1002000021303105E9F148F02230310509F46CC0A4
:100210002330310509F49CC0CFC093B1917093B9DC
:10022000911107C060E070E0CB010E94A70081E35C
:10023000D4CF93B1927093B9911108C060E070E08F
:1002400080E89FE30E94A70082E3C7CF93B1947038
:1002500093B9911108C060E070E080E090E40E94E2
:10026000A70083E3BACF93B1987093B99111B5CF3A
:1002700060E070E080E490E40E94A70081E4ADCFEC
:1002800093B1917093B9911108C060E070E080E87B
:1002900090E40E94A70084E3A0CF93B1927093B939
:1002A000911108C060E070E080EA90E40E94A7002D
:1002B00085E393CF93B1947093B9911108C060E036
:1002C00070E080EC90E40E94A70086E386CF93B1B3
:1002D000987093B9911181CF60E070E080EE90E466
:1002E0000E94A70082E479CF93B1917093B99111E4
:1002F00008C060E070E080E091E40E94A70087E31E
:100300006CCF93B1927093B9911108C060E070E026
:1003100080E191E40E94A70088E35FCF93B19470DD
:1003200093B9911108C060E070E080E291E40E940E
:10033000A70089E352CF93B1987093B991114DCF33
:1003400060E070E080E391E40E94A70083E445CF81
:1003500093B1917093B9911108C060E070E080E4AE
:1003600091E40E94A7008AE22BC093B1927093B9E6
:10037000911108C060E070E080E591E40E94A70060
:1003800080E31EC093B1947093B9911108C060E0EE
:1003900070E080E691E40E94A70083E211C093B16F
:1003A000987093B991110CC060E070E080E791E41F
:1003B0000E94A70084E404C0C430D1050CF40DCF22
:1003C000DF91CF911F910F91089584B5836084BD13
:1003D00085B5886085BD84B5806284BD85B584603F
:1003E00085BD0E94DD005598FCCF5058BB27AA2739
:1003F0000E940D020C941A030E940C0338F00E9414
:10040000130320F039F49F3F19F426F40C940903E8
:100410000EF4E095E7FB0C940303E92F0E942B03F5
:1004200058F3BA17620773078407950720F079F429
:10043000A6F50C944D030EF4E0950B2EBA2FA02DCB
:100440000B01B90190010C01CA01A0011124FF2781
:10045000591B99F0593F50F4503E68F11A16F0407C
:10046000A22F232F342F4427585FF3CF469537957B
:100470002795A795F0405395C9F77EF41F16BA0B40
:10048000620B730B840BBAF09150A1F0FF0FBB1FEE
:10049000661F771F881FC2F70EC0BA0F621F731F37
:1004A000841F48F4879577956795B795F7959E3F94
:1004B00008F0B0CF9395880F08F09927EE0F979525
:1004C000879508950E9476020C941A030E941303E4
:1004D00058F00E940C0340F029F45F3F29F00C947F
:1004E000030351110C944E030C9409030E942B0337
:1004F00068F39923B1F3552391F3951B550BBB2753
:10050000AA2762177307840738F09F5F5F4F220F97
:10051000331F441FAA1FA9F335D00E2E3AF0E0E88E
:1005200032D091505040E695001CCAF72BD0FE2FD8
:1005300029D0660F771F881FBB1F2617370748076C
:10054000AB07B0E809F0BB0B802DBF01FF27935824
:100550005F4F3AF09E3F510578F00C9403030C94E2
:100560004E035F3FE4F3983ED4F386957795679505
:10057000B795F7959F5FC9F7880F911D9695879559
:1005800097F90895E1E0660F771F881FBB1F621778
:1005900073078407BA0720F0621B730B840BBA0B36
:1005A000EE1F88F7E09508950E94330388F09F5767
:1005B00098F0B92F9927B751B0F0E1F0660F771F87
:1005C000881F991F1AF0BA95C9F714C0B13091F07D
:1005D0000E944D03B1E008950C944D03672F782FCE
:1005E0008827B85F39F0B93FCCF386957795679542
:1005F000B395D9F73EF490958095709561957F4FAE
:100600008F4F9F4F089597F99F6780E870E060E0F3
:1006100008959FEF80EC089500240A94161617069B
:1006200018060906089500240A94121613061406E3
:1006300005060895092E0394000C11F4882352F046
:10064000BB0F40F4BF2B11F460FF04C06F5F7F4FFE
:100650008F4F9F4F089557FD9058440F551F59F0E5
:100660005F3F71F04795880F97FB991F61F09F3F9F
:1006700079F087950895121613061406551FF2CFC8
:100680004695F1DF08C0161617061806991FF1CF18
:1006900086957105610508940895E894BB2766273F
:1006A0007727CB0197F908950E9467030C941A03EA
:1006B0000E940C0338F00E94130320F0952311F0E0
:1006C0000C9403030C94090311240C944E030E9410
:1006D0002B0370F3959FC1F3950F50E0551F629F58
:1006E000F001729FBB27F00DB11D639FAA27F00D8B
:1006F000B11DAA1F649F6627B00DA11D661F829FB2
:100700002227B00DA11D621F739FB00DA11D621F96
:10071000839FA00D611D221F749F3327A00D611DB3
:10072000231F849F600D211D822F762F6A2F112495
:100730009F5750409AF0F1F088234AF0EE0FFF1FC8
:10074000BB1F661F771F881F91505040A9F79E3F1F
:10075000510580F00C9403030C944E035F3FE4F3C7
:10076000983ED4F3869577956795B795F795E79575
:100770009F5FC1F7FE2B880F911D9695879597F97E
:100780000895FA01EE0FFF1F309621053105A1F102
:100790006115710561F48038BFE39B0749F16894E6
:1007A0009038810561F08038BFEF9B0741F09923B5
:1007B0004AF5FF3FE1053105210519F1E894089458
:1007C000E795D901AA2329F4AB2FBE2FF85FD0F308
:1007D00010C0FF5F70F4A695E0F7F73950F019F0FC
:1007E000FF3A38F49F779F930DD00F9007FC9058F5
:1007F000089546F00C94090360E070E080E89FE300
:1008000008954FE79F775F934F933F932F930E94F5
:10081000BC042F913F914F915F910E9454030C941F
:10082000190429F416F00C9403030C944D030C9452
:1008300009030E943303A8F39638A0F707F80F9234
:10084000E8942BE33AEA48EB5FE70E946A030F92D1
:100850000F920F924DB75EB70F920E940405E4EB22
:10086000F0E00E944B044F915F91EF91FF91E5956D
:10087000EE1FFF1F49F0FE57E0684427EE0F441FAC
:10088000FA95E1F74195550B0E947E040F9007FE03
:100890000C9472040895DF93CF931F930F93FF92EC
:1008A000EF92DF927B018C01689406C0DA2EEF0193
:1008B0000E946703FE01E894A59125913591459129
:1008C0005591A6F3EF010E940D02FE019701A801C8
:1008D000DA9469F7DF90EF90FF900F911F91CF911D
:1008E000DF9108959B01AC0160E070E080E89FE338
:1008F0000C9462020C9403030C9475050E9433035C
:10090000D8F39923C9F3940F511DA3F3915050408C
:1009100094F059F0882332F0660F771F881F9150AA
:100920005040C1F79E3F51052CF7880F911D9695B9
:10093000879597F908955F3FACF0983E9CF0BB27F0
:10094000869577956795B79508F4B1609395C1F74B
:10095000BB0F58F711F460FFE8CF6F5F7F4F8F4FE9
:100960009F4FE3CF0C944E0316F00C9475050C9436
:10097000090368940C9403030E943303A8F399239A
:10098000C1F3AEF3DF93CF931F930F93FF92C92F61
:10099000DD2788232AF02197660F771F881FDAF753
:1009A00020E030E040E85FEB9FE3883920F0803EB4
:1009B00038F021968F770E94F601ECEDF0E004C04C
:1009C0000E94F601E9E0F1E00E944B048B01BE01B8
:1009D000EC01FB2E6F5771097595771F880B990BEA
:1009E0000E943A0528E132E741E35FE30E94670392
:1009F000AF2D9801AE01FF900F911F91CF91DF9124
:100A00000E940D020C941A03FA01DC01AA0FBB1F0D
:100A10009B01AC01BF5728F4222733274427507885
:100A200020C0B75190F4AB2F0024469537952795F9
:100A3000011CA395D2F3002071F0220F331F441F35
:100A4000B395DAF30ED00C94F50161307105A0E88E
:100A50008A07B94630F49B01AC01662777278827BF
:100A60009078309621F02083318342835383089518
:100A7000E89409C097FB3EF4909580957095619538
:100A80007F4F8F4F9F4F9923A9F0F92F96E9BB27EE
:100A90009395F695879577956795B795F111F8CF6A
:100AA000FAF4BB0F11F460FF1BC06F5F7F4F8F4FD5
:100AB0009F4F16C0882311F096E911C0772321F0CB
:100AC0009EE8872F762F05C0662371F096E8862F63
:100AD00070E060E02AF09A95660F771F881FDAF7BA
:100AE000880F9695879597F908959F3F31F091501B
:100AF00020F4879577956795B795880F911D969502
:0A0B0000879597F90895F894FFCF48
:00000001FF
