:100000000C945A000C9464000C9464000C946400EA
:100010000C9464000C9464000C9464000C946400D0
:100020000C9464000C9464000C9464000C946400C0
:100030000C9464000C9464000C9464000C946400B0
:100040000C9464000C9464000C9464000C946400A0
:100050000C9464000C9464000C9464000C94640090
:100060000C9464000C9464000C9464000C94640080
:100070000C9464000C9464000C9464000C94640070
:100080000C9464000C9464000C9464000C94640060
:100090000C9464000C9464000C9464000C94640050
:1000A0000C9464000C9464000C9464000C94640040
:1000B0000C94640011241FBECFEFD8E0DEBFCDBF8B
:1000C0000E9427010C9439010C9400001092C50085
:1000D00087E68093C400E1ECF0E080818861808352
:1000E000E2ECF0E08081866080838081877F80837E
:1000F0000895E0ECF0E0908195FFFDCF8093C6007D
:10010000089587B18F6087B985B18F6085B9E1E0C7
:10011000F0E086E4A1E0B0E001C031969F012150FB
:10012000310998B19F6098B948B1BD01022E02C053
:10013000660F771F0A94E2F7962F9095942398B94B
:100140002130310511F140F022303105B9F1233071
:10015000310509F449C05EC093B1917093B99923F8
:1001600009F45DC093B1927093B9992309F459C011
:1001700093B1947093B9992309F455C093B19870D1
:1001800093B99111CACF81E4C8CF93B1917093B95B
:10019000992309F44AC093B1927093B9992309F451
:1001A00046C093B1947093B9992309F442C093B1B6
:1001B000987093B99111B1CF82E4AFCF93B19170A0
:1001C00093B99923C1F193B1927093B99923A9F18D
:1001D00093B1947093B9992391F193B1987093B9B5
:1001E00091119BCF83E499CF93B1917093B99923E7
:1001F00041F193B1927093B9992329F193B194701D
:1002000093B9992311F193B1987093B991111EC0CC
:1002100084E40895E430F1050CF47FCF089581E380
:100220007CCF82E37ACF83E378CF84E376CF85E314
:1002300074CF86E372CF87E370CF88E36ECF89E314
:100240006CCF8AE2089580E3089583E208950E94C6
:1002500066000E9481008634E1F32FEF30E792E0E0
:10026000215030409040E1F700C000000E9479002A
:06027000F0CFF894FFCF6F
:00000001FF
